:020000040800F2
:100000005007002095010008CD1F00089D1C000826
:10001000C91F00088D0400084127000800000000E7
:100020000000000000000000000000009520000813
:10003000910400080000000051200008F52000088D
:10004000AF010008AF010008AF010008AF010008D0
:10005000AF010008AF010008AF010008AF010008C0
:10006000AF010008AF010008AF010008AF010008B0
:10007000AF010008AF010008AF010008AF010008A0
:10008000AF010008AF010008AF010008AF01000890
:10009000AF010008AF010008AF010008AF01000880
:1000A000AF010008AF010008AF010008AF01000870
:1000B000AF010008AF010008AF010008AF01000860
:1000C000AF010008AF010008AF010008AF01000850
:1000D000AF010008AF010008AF010008AF01000840
:1000E000AF010008AF010008AF01000800F002F8FE
:1000F00000F03EF80AA090E8000C82448344AAF184
:100100000107DA4501D100F033F8AFF2090EBAE881
:100110000F0013F0010F18BFFB1A43F0010318473B
:100120006427000084270000103A24BF78C878C1F3
:10013000FAD8520724BF30C830C144BF04680C60ED
:10014000704700000023002400250026103A28BF35
:1001500078C1FBD8520728BF30C148BF0B60704739
:100160001FB50FBC00F014F80FB41FBD10B510BDC3
:1001700000F05AF81146FFF7F3FF02F031FB00F0F0
:1001800078F803B4FFF7F2FF03BC00F07FF800003B
:1001900000F093B80948804709480047FEE7FEE7AA
:1001A000FEE7FEE7FEE7FEE7FEE7FEE7FEE7FEE727
:1001B00004480549054A064B7047000079210008AC
:1001C000ED000008500100205007002050030020DF
:1001D000500300204FF0000200B5134694469646A7
:1001E000203922BFA0E80C50A0E80C50B1F120014A
:1001F000BFF4F7AF090728BFA0E80C5048BF0CC0F8
:100200005DF804EB890028BF40F8042B08BF704755
:1002100048BF20F8022B11F0804F18BF00F8012BC7
:100220007047704770477047754600F02BF8AE4630
:1002300005006946534620F00700854618B020B5F2
:10024000FFF7B6FFBDE820404FF000064FF0000773
:100250004FF000084FF0000BAC46ACE8C009ACE82A
:10026000C009ACE8C009ACE8C00921F007018D461F
:10027000704710B50446AFF300802046BDE810403B
:10028000FFF77FBF00487047100000200149182089
:10029000ABBEFEE7260002000246C91C21F00301A6
:1002A000D2E900031B1A8B4201D20020704701449F
:1002B000C91D21F00701116070472DE9F34F83B08C
:1002C00000274FF48074BA4603A821468DF80070C9
:1002D000FFF7E2FF5FEA000801D100F083F8214652
:1002E000404600F070F8060009D04FF0010B45467B
:1002F000C14616F8014B8FB15C2C16D01CE008F1FA
:1003000008004146C8F800000020C8F80400D8F8EA
:1003100000402070012005B0BDE8F08F222C01D0F4
:10032000272C0FD12746BA462CE03078222807D058
:100330005C2805D0272803D0BC4203D1002721E048
:10034000761C04464CB12FB9202C06D0A4F109002C
:10035000042802D905F8014BCBE74D4502D1BAF18B
:10036000000F0FD052464946002005F8010B6846A1
:10037000AFF300809DF8000070B14D464FF0000AC9
:100380000BF1010B002CB4D14FEA8B0103A8FFF74E
:1003900083FF040002D004E0A946EFE7002000F04C
:1003A00021F800204246C4F8008005E012F8011B45
:1003B00011B9401C44F82020AA42F7D3002144F888
:1003C00020102146A7E71CB50446CDE90001694687
:1003D0001520ABBE08B100201CBD20461CBD7047D7
:1003E0007047704710B500F009F8BDE81040AFF352
:1003F0000080002801D0FFF749BF704710B50128E1
:1004000005D0002103A000F021F8012010BD09A1B2
:10041000F8E7000053494752544D454D3A204F7577
:1004200074206F662068656170206D656D6F7279EC
:10043000000000003A2048656170206D656D6F72A4
:100440007920636F727275707465640070B50546CB
:100450000C460A2000E06D1C00F011F835B1287838
:100460000028F8D102E0641C00F009F814B12078EB
:100470000028F8D1BDE870400A20AFF3008008B52D
:1004800069468DF800000320ABBE08BDFFE7FEE71C
:100490007047000081B0EFF3108072B60090FFE764
:1004A000FEE7000080B584B001460390009100F0A3
:1004B000DFF902900398019001980130002809D0DB
:1004C000FFE740F20400C2F20000007801990844FE
:1004D0000190FFE7FFE700F0CBF9DDF808E0A0EBC3
:1004E0000E00DDF804E0704501D2FFE7F3E704B049
:1004F00080BD000093B00A4603461290119100207F
:1005000010900C9008920793FFE7119800681099DB
:10051000C840002800F08881FFE71098012101FA07
:1005200000F00F90119800680F9908400E900E98F7
:100530000F99884240F07481FFE7119840680028C5
:10054000069051D0FFE7069801283AD0FFE70698B9
:1005500002283FD0FFE70698032860D0FFE70698FF
:10056000112832D0FFE70698122838D0FFE7002084
:10057000C1F211000699814236D0FFE70020C1F296
:100580001200069981422FD0FFE70020C1F221001E
:100590000699814228D0FFE70020C1F22200069987
:1005A000814221D0FFE70020C1F23100069981424B
:1005B0001AD0FFE70020C1F232000699814213D021
:1005C00030E01198C0680C902DE01198C06804309C
:1005D0000C9028E01198C06808300C9023E0119826
:1005E000C0680C300C901EE011988068002803D180
:1005F000FFE704200C9011E011988068012806D1D3
:10060000FFE708200C900F981299086105E0082078
:100610000C900F9812994861FFE7FFE703E0002074
:100620000C9000E0FFE70E98FF2803D8FFE7129830
:10063000059003E0129804300590FFE705980B90B1
:100640000E98FF2804D8FFE710988000049006E079
:1006500010986FF01F0101EB80000490FFE70498F1
:100660000A900B9800680A990F228A4090430C9ACE
:1006700002FA01F108430B99086011984068C00024
:10068000002840F1CC80FFE7FFE741F21800C4F2F8
:100690000200016841F001010160006800F0010002
:1006A000099009980390FFE7109820F003000821B3
:1006B000C4F2010140580D90109800F00300800032
:1006C0000F2101FA00F00D9921EA00000D90129817
:1006D00040F60001C4F20101884203D1FFE7002087
:1006E000029026E0129840F60041C4F201018842CF
:1006F00003D1FFE70120019018E0129841F20001B8
:10070000C4F20101884203D1FFE7022000900AE011
:10071000129841F20041C4F201010422884208BF4C
:1007200003220092FFE700980190FFE701980290F2
:10073000FFE70298109901F00301890088400D99A4
:1007400008430D900D98109921F003010822C4F27E
:100750000102885011984068C002002809D5FFE7BF
:100760000E9840F20841C4F201010A681043086083
:1007700009E00E9840F20841C4F201010A6822EA39
:1007800000000860FFE7119840688002002809D542
:10079000FFE70E9840F20C41C4F201010A681043D1
:1007A000086009E00E9840F20C41C4F201010A68A9
:1007B00022EA00000860FFE71198406880030028E3
:1007C00009D5FFE70E9840F20441C4F201010A681E
:1007D0001043086009E00E9840F20441C4F20101A0
:1007E0000A6822EA00000860FFE711984068C00329
:1007F000002809D5FFE70E9840F20041C4F201013C
:100800000A681043086009E00E9840F20041C4F203
:1008100001010A6822EA00000860FFE7FFE7FFE73E
:1008200010980130109070E613B0704780B585B015
:1008300013468C4686460490ADF80E108DF80D20B8
:100840009DF80D0000280293CDF804C0CDF800E01B
:1008500005D0FFE7BDF80E000499086105E0BDF87A
:100860000E00000404990861FFE705B080BD000098
:1008700040F24810C2F200000068704740F20400E5
:10088000C2F20000007840F24811C2F200010A688A
:10089000104408607047000080B582B042F200004A
:1008A000C4F20200016841F010010160032000F071
:1008B0009DF80F2000F006F8019000F03FF80020AE
:1008C00002B080BD80B584B00146029040F20000C5
:1008D000C2F20000006840F20402C2F20002127884
:1008E0004FF47A73B3FBF2F2B0FBF2F0019100F037
:1008F0007DFD002804D0FFE701208DF80F0018E0EF
:1009000002980F280DD8FFE702994FF0FF30002220
:1009100000F048F8029840F20801C2F200010860B5
:1009200003E001208DF80F0003E000208DF80F0098
:10093000FFE79DF80F0004B080BD000085B0FFE721
:1009400041F21800C4F20200016841F001010160A7
:10095000006800F00100049004980190FFE7FFE7B1
:1009600041F21C00C4F20200016841F080510160B4
:10097000006800F08050039003980090FFE7FFE7C5
:100980000420C4F2010001680291029921F0E061A3
:100990000291029941F00071029102990160FFE712
:1009A00005B0704780B58AB013468C4686468DF8F0
:1009B000270008910792002006900593CDF810C0FB
:1009C000CDF80CE001F0BEFE069006980899079A53
:1009D0009DF92730029301F0FBFA02990190084635
:1009E000019901F0B7FE0AB080BD000080B582B069
:1009F000014601900198009101F0D2FE02B080BD45
:100A000080B588B00A4603460690059106980028EE
:100A10000392029304D1FFE701208DF81F0020E12B
:100A2000059842F20001C4F20201096801F00701D1
:100A3000884216D9FFE742F20000C4F202000168C2
:100A400021F00701059A11430160006800F00700DA
:100A50000599884204D0FFE701208DF81F0000E1CE
:100A6000FFE706980068800700282AD5FFE7069868
:100A700000684007002809D5FFE741F20400C4F2EE
:100A80000200016841F4E0610160FFE70698006838
:100A90000007002809D5FFE741F20400C4F2020074
:100AA000016841F460510160FFE741F20400C4F2C3
:100AB0000200016821F0F001069A9268114301607A
:100AC000FFE706980068C007002862D0FFE7069895
:100AD000406801280ED1FFE741F20000C4F2020095
:100AE000006810F4003F04D1FFE701208DF81F00DB
:100AF000B7E021E00698406802280ED1FFE741F2F6
:100B00000000C4F20200006810F0007F04D1FFE78B
:100B100001208DF81F00A4E00DE041F20000C4F2B6
:100B20000200006810F0020F04D1FFE701208DF8E9
:100B30001F0096E0FFE7FFE741F20400C4F2020065
:100B4000016821F00301069A526811430160FFF722
:100B50008FFE0490FFE741F20400C4F20200006837
:100B600000F00C0006994968B0EB810F10D0FFE748
:100B7000FFF77EFEDDF810E0A0EB0E0041F2893EAB
:100B8000704504D3FFE703208DF81F0069E0E2E71A
:100B9000FFE7059842F20001C4F20201096801F082
:100BA0000701884216D2FFE742F20000C4F20200B9
:100BB000016821F00701059A11430160006800F007
:100BC00007000599884204D0FFE701208DF81F0037
:100BD00047E0FFE706980068400700280CD5FFE7CC
:100BE00041F20400C4F20200016821F4E061069AB7
:100BF000D26811430160FFE70698006800070028EB
:100C00000DD5FFE741F20400C4F20200016821F4AF
:100C10006051069A126941EAC2010160FFE700F0E3
:100C200025F841F2040EC4F2020EDEF800E0CEF325
:100C3000031E42F66201C0F6000111F80E10C84012
:100C400040F20001C2F20001086040F20800C2F266
:100C500000000068FFF736FE00218DF81F1001909C
:100C6000FFE79DF81F0008B080BD000086B000209F
:100C70000590049003900290019041F20400C4F2A8
:100C8000020000680590059800F00C00014600285D
:100C9000009140D0FFE70098042804D0FFE70098B7
:100CA000082806D038E041F20020C0F27A00019016
:100CB00038E00598C0F3834042F67201C0F60001A7
:100CC000085C02909DF81600C007002818D0FFE7C6
:100CD00041F20400C4F202000068C0F3404042F652
:100CE0008201C0F60001085C0490029841F20021E4
:100CF000C0F27A0148430499B0FBF1F0039007E099
:100D0000029840F60011C0F23D0148430390FFE70E
:100D10000398019006E0FFE741F20020C0F27A005C
:100D20000190FFE7019806B07047000080B588B0D9
:100D30000146069006980028019104D1FFE70120A2
:100D40008DF81F004EE306980068C007002800F0E9
:100D5000B580FFE741F20400C4F20200006800F031
:100D60000C00042813D0FFE741F20400C4F2020093
:100D7000006800F00C0008281CD1FFE741F20400D5
:100D8000C4F20200006810F4803F13D0FFE741F284
:100D90000000C4F20200006810F4003F09D0FFE731
:100DA00006984068002804D1FFE701208DF81F0055
:100DB00018E382E0FFE706984068B0F5803F09D16C
:100DC000FFE741F20000C4F20200016841F4803103
:100DD000016033E00698406800280DD1FFE741F23A
:100DE0000000C4F20200016821F480310160016852
:100DF00021F48021016020E006984068B0F5A02F22
:100E00000DD1FFE741F20000C4F20200016841F495
:100E100080210160016841F4803101600CE041F201
:100E20000000C4F20200016821F480310160016811
:100E300021F480210160FFE7FFE7FFE7FFE7069865
:100E4000406800281CD0FFE7FFF712FD0590FFE780
:100E500041F20000C4F20200006810F4003F0ED11D
:100E6000FFE7FFF705FDDDF814E0A0EB0E006528B5
:100E700004D3FFE703208DF81F00B3E2E8E71BE08F
:100E8000FFF7F6FC0590FFE741F20000C4F2020014
:100E9000006810F4003F0ED0FFE7FFF7E9FCDDF833
:100EA00014E0A0EB0E00652804D3FFE703208DF8C3
:100EB0001F0097E2E8E7FFE7FFE7FFE70698006813
:100EC0008007002840F19280FFE741F20400C4F25D
:100ED0000200006810F00C0F13D0FFE741F204008D
:100EE000C4F20200006800F00C00082829D1FFE7D6
:100EF00041F20400C4F20200006810F4803F20D1E7
:100F0000FFE741F20000C4F20200006810F0020F97
:100F100009D0FFE706980069012804D0FFE7012007
:100F20008DF81F005EE241F20000C4F20200016889
:100F300021F0F801069A526941EAC2010160FFE717
:100F400053E00698006900282DD0FFE70020C4F286
:100F5000422001210160FFF78BFC0590FFE741F281
:100F60000000C4F20200006810F0020F0ED1FFE78B
:100F7000FFF77EFCDDF814E0A0EB0E00032804D39D
:100F8000FFE703208DF81F002CE2E8E741F20000A4
:100F9000C4F20200016821F0F801069A526941EAA0
:100FA000C201016020E00020C4F242200021016063
:100FB000FFF75EFC0590FFE741F20000C4F202007B
:100FC000006810F0020F0ED0FFE7FFF751FCDDF8CC
:100FD00014E0A0EB0E00032804D3FFE703208DF8F4
:100FE0001F00FFE1E8E7FFE7FFE7FFE7069800687B
:100FF000000700284DD5FFE706988069002825D016
:10100000FFE740F28040C4F2422001210160FFF777
:101010002FFC0590FFE741F22400C4F202000068B3
:1010200010F0020F0ED1FFE7FFF722FCDDF814E00D
:10103000A0EB0E00032804D3FFE703208DF81F0068
:10104000D0E1E8E7012001F005F821E040F280401E
:10105000C4F2422000210160FFF70AFC0590FFE77F
:1010600041F22400C4F20200006810F0020F0ED01A
:10107000FFE7FFF7FDFBDDF814E0A0EB0E0003280F
:1010800004D3FFE703208DF81F00ABE1E8E7FFE79B
:10109000FFE7069800684007002840F1E180FFE77D
:1010A00000208DF80F0041F21C00C4F2020000681D
:1010B00010F0805F14D1FFE7FFE741F21C00C4F29B
:1010C0000200016841F080510160006800F080502A
:1010D000029002980090FFE701208DF80F00FFE7D3
:1010E00047F20000C4F20000006810F4807F24D1B1
:1010F000FFE747F20000C4F20000016841F480718C
:101100000160FFF7B5FB0590FFE747F20000C4F26E
:101110000000006810F4807F0ED1FFE7FFF7A8FB06
:10112000DDF814E0A0EB0E00652804D3FFE70320F0
:101130008DF81F0056E1E8E7FFE7FFE70698C06873
:10114000012809D1FFE741F22000C4F20200016842
:1011500041F00101016032E00698C06800280DD11D
:10116000FFE741F22000C4F20200016821F0010112
:101170000160016821F0040101601FE00698C06869
:1011800005280DD1FFE741F22000C4F202000168FA
:1011900041F004010160016841F0010101600CE0CF
:1011A00041F22000C4F20200016821F00101016057
:1011B000016821F004010160FFE7FFE7FFE7FFE7B7
:1011C0000698C06800281ED0FFE7FFF751FB059086
:1011D000FFE741F22000C4F20200006810F0020FA5
:1011E00010D1FFE7FFF744FBDDF814E0A0EB0E00A1
:1011F00041F2893E704504D3FFE703208DF81F00BC
:10120000F0E0E6E71DE0FFF733FB0590FFE741F272
:101210002000C4F20200006810F0020F10D0FFE7B7
:10122000FFF726FBDDF814E0A0EB0E0041F2893E4B
:10123000704504D3FFE703208DF81F00D2E0E6E7F6
:10124000FFE79DF80F00012809D1FFE741F21C00DC
:10125000C4F20200016821F080510160FFE7FFE75E
:101260000698C069002800F0B980FFE741F2040049
:10127000C4F20200006800F00C00082800F088802A
:10128000FFE70698C069022860D1FFE76020C4F23A
:10129000422000210160FFF7EBFA0590FFE741F2E1
:1012A0000000C4F20200006810F0007F0ED0FFE7DB
:1012B000FFF7DEFADDF814E0A0EB0E00032804D3FC
:1012C000FFE703208DF81F008CE0E8E70698006A2E
:1012D000B0F5803F0CD1FFE741F20400C4F20200F8
:1012E000016821F40031069A926811430160FFE71A
:1012F00041F20400C4F20200016821F47411069A5C
:10130000136A526A1A43114301606020C4F24220FA
:1013100001210160FFF7ACFA0590FFE741F2000000
:10132000C4F20200006810F0007F0ED1FFE7FFF763
:101330009FFADDF814E0A0EB0E00032804D3FFE7CA
:1013400003208DF81F004DE0E8E720E06020C4F2A4
:10135000422000210160FFF78BFA0590FFE741F280
:101360000000C4F20200006810F0007F0ED0FFE71A
:10137000FFF77EFADDF814E0A0EB0E00032804D39B
:10138000FFE703208DF81F002CE0E8E7FFE724E0EB
:101390000698C069012804D1FFE701208DF81F00DD
:1013A00020E041F20400C4F20200006804900498B6
:1013B00000F480300699096A884208D1FFE7049852
:1013C00000F470100699496A884204D0FFE70120B2
:1013D0008DF81F0006E0FFE7FFE7FFE700208DF82C
:1013E0001F00FFE79DF81F0008B080BD80B582B0E8
:1013F000014601900198009100F04EFE02B080BDC0
:1014000086B00A46034604900391002002900192A0
:101410000093FFE7049890F83C00012804D1FFE70F
:1014200002208DF8170044E00498012180F83C1058
:10143000FFE7FFE7029820F0FF000399C96808431F
:101440000290029820F44070039989680843029042
:10145000029820F48060039949680843029002983A
:1014600020F400600399096808430290029820F470
:1014700080500399096908430290029820F40050B3
:101480000399496908430290029820F48040039927
:10149000C969084302900298049909684864FFE703
:1014A0000498002180F83C10FFE700208DF8170019
:1014B000FFE79DF8170006B07047000087B00A46A6
:1014C00003460590049101920093FFE7059890F878
:1014D0003C00012804D1FFE702208DF81B005BE0EF
:1014E0000598012180F83C10FFE7FFE705980221ED
:1014F00080F83D10059800684068039005980068E2
:1015000080680290039820F07000039004980068AF
:101510000399084303900398059909684860059862
:10152000006842F60041C4F20101884218D0FFE78A
:1015300005980068B0F1804F12D0FFE70598006869
:1015400040F20041C4F20001884209D0FFE705984B
:10155000006840F60001C4F2000188420ED1FFE7A6
:10156000029820F080000290049840680299084395
:1015700002900298059909688860FFE705980121A3
:1015800080F83D10FFE70598002180F83C10FFE748
:1015900000208DF81B00FFE79DF81B0007B0704787
:1015A00080B584B00146029002980028019104D1D0
:1015B000FFE701208DF80F0043E0029890F83D000E
:1015C000002808D1FFE70298002180F83C1002981B
:1015D00000F03CF8FFE70298022180F83D100298E5
:1015E00050F8041B00900846009900F0C7FD0298CF
:1015F000012180F84610FFE70298012180F83E1093
:10160000029880F83F10029880F84010029880F805
:101610004110FFE7FFE70298012180F8421002988D
:1016200080F84310029880F84410029880F8451022
:10163000FFE70298012180F83D1000208DF80F008F
:10164000FFE79DF80F0004B080BD000088B00146A0
:1016500007900798006842F60042C4F201029042E7
:10166000039111D1FFE7FFE741F21800C4F2020035
:10167000016841F400610160006800F400600690B8
:1016800006980290FFE735E00798006840F20041B5
:10169000C4F20001884211D1FFE7FFE741F21C00CC
:1016A000C4F20200016841F002010160006800F02C
:1016B0000200059005980190FFE71AE0079800687E
:1016C00040F60001C4F20001884211D1FFE7FFE7B4
:1016D00041F21C00C4F20200016841F00401016003
:1016E000006800F00400049004980090FFE7FFE712
:1016F000FFE7FFE708B0704780B58EB00A460346A3
:101700000C900B9100208DF82B0008920793FFE7B7
:101710000C9890F83C00012804D1FFE702208DF8D6
:101720003700BBE00C98012180F83C10FFE7FFE791
:101730000C98022180F83D100C9800688068099090
:10174000099820F077000990099820F47F400990CB
:1017500009980C99096888600B9800680028069021
:1017600000F08280FFE7069810287DD0FFE70698FA
:10177000202879D0FFE70698302875D0FFE7069833
:10178000402861D0FFE7069850283DD0FFE7069833
:10179000602849D0FFE7069870280BD0FFE706982D
:1017A000B0F5805F05D0FFE70698B0F5005F19D06F
:1017B00061E064E00C9800680B994A688B68C9681E
:1017C00005911946059B00F07BFD0C980068806828
:1017D0000990099840F07700099009980C990968D8
:1017E00088604CE00C9800680B994A688B68C9685F
:1017F00004911946049B00F063FD0C980068816811
:1018000041F4804181603AE00C9800680B994A6885
:10181000C96803911146039A00F02EFF0C980068E6
:10182000502100F073FD2AE00C9800680B994A687B
:10183000C96802911146029A00F050FF0C980068A6
:10184000602100F063FD1AE00C9800680B994A686B
:10185000C96801911146019A00F00EFF0C980068CA
:10186000402100F053FD0AE00C9800680B990968CC
:1018700000F04CFD03E001208DF82B00FFE70C98F1
:10188000012180F83D10FFE70C98002180F83C1002
:10189000FFE79DF82B008DF83700FFE79DF8370034
:1018A0000EB080BD80B588B001460790002006903C
:1018B0000590049003900798006842F60042C4F235
:1018C0000102904201911ED1FFE7FFE741F21800AB
:1018D000C4F20200016841F004010160006800F0F8
:1018E0000400029002980090FFE74FF4807003908C
:1018F00002200490069040F60000C4F2010003A903
:10190000FEF7F8FDFFE708B080BD000080B58AB0A3
:1019100013468C46864608900791069200208DF863
:1019200017000493CDF80CC0CDF808E0FFE7089845
:1019300090F83C00012804D1FFE702208DF8270031
:101940008FE00898012180F83C10FFE7FFE7069838
:101950000C28019000F276800199DFE801F007730E
:101960007373227373733D73737358000898006820
:10197000079900F0E5FC08980068816941F00801CA
:10198000816108980068816921F0040181610798EC
:10199000006908990968D1F818E040EA0E008861EA
:1019A00054E008980068079900F036FD0898006830
:1019B000816941F40061816108980068816921F4BE
:1019C000806181610798006908990968D1F818E079
:1019D0004EEA0020886139E008980068079900F015
:1019E0008BFD08980068C16941F00801C161089841
:1019F0000068C16921F00401C16107980069089974
:101A00000968D1F81CE040EA0E00C8611EE00898A1
:101A10000068079900F0E0FD08980068C16941F48A
:101A20000061C16108980068C16921F48061C161E9
:101A30000798006908990968D1F81CE04EEA00206F
:101A4000C86103E001208DF81700FFE7FFE7089861
:101A5000002180F83C10FFE79DF817008DF8270063
:101A6000FFE79DF827000AB080BD000080B584B074
:101A70000146029002980028019104D1FFE701205D
:101A80008DF80F0043E0029890F83D00002808D13F
:101A9000FFE70298002180F83C10029800F03CF823
:101AA000FFE70298022180F83D10029850F8041BCD
:101AB00000900846009900F061FB0298012180F82F
:101AC0004610FFE70298012180F83E10029880F846
:101AD0003F10029880F84010029880F84110FFE70C
:101AE000FFE70298012180F84210029880F8431025
:101AF000029880F84410029880F84510FFE7029899
:101B0000012180F83D1000208DF80F00FFE79DF8BF
:101B10000F0004B080BD000082B00146019000912A
:101B200002B0704780B58CB00A4603460A9009910E
:101B3000099800280792069305D1FFE70A9890F8C4
:101B40003E0005901CE00998042805D1FFE70A989B
:101B500090F83F00049010E00998082805D1FFE7AD
:101B60000A9890F84000039004E00A9890F8410029
:101B70000390FFE703980490FFE704980590FFE7C0
:101B80000598012804D0FFE701208DF82F0080E0A0
:101B90000998002805D1FFE70A98022180F83E1035
:101BA0001FE00998042806D1FFE70A98022180F86F
:101BB0003F10029112E00998082806D1FFE70A9821
:101BC000022180F84010019105E00A98022180F876
:101BD00041100191FFE701980290FFE70298009001
:101BE000FFE70A9800680999012200F043FB0A9870
:101BF00000684DF20041CBF6FE710844B0FA80F067
:101C00004009002807D0FFE70A980068416C41F4BA
:101C100000414164FFE70A98006842F60041C4F2BF
:101C20000101884218D0FFE70A980068B0F1804FA0
:101C300012D0FFE70A98006840F20041C4F20001A8
:101C4000884209D0FFE70A98006840F60001C4F214
:101C50000001884212D1FFE70A980068806800F00E
:101C6000070008900898062807D0FFE70A98006840
:101C7000016841F001010160FFE706E00A98006891
:101C8000016841F001010160FFE700208DF82F009D
:101C9000FFE79DF82F000CB080BD0000FFE7FEE7D6
:101CA00080B590B000200F900E900D900C90FFE743
:101CB00041F21800C4F20200016841F01001016015
:101CC000006800F010000B900B980790FFE7FFE70B
:101CD00041F21800C4F20200016841F020010160E5
:101CE000006800F020000A900A980690FFE7FFE7DE
:101CF00041F21800C4F20200016841F004010160E1
:101D0000006800F00400099009980590FFE7FFE7DC
:101D100041F21800C4F20200016841F008010160BC
:101D2000006800F00800089008980490FFE740F66B
:101D30000040C4F2010008210022039002910192A8
:101D4000FEF774FD02980C9001210D9101990E91FE
:101D500002220F920CAA039811460092FEF7CAFBCA
:101D600010200C900020C1F231000D9001980E90CF
:101D700003980099FEF7BEFB10B080BD80B596B009
:101D800000201590149013901290119010900F90C5
:101D90000E900D900C900B900A900990089007906F
:101DA00006900590049003900290019040F270011B
:101DB000C2F2000142F60042C4F201020A6040F29F
:101DC000CF224A60886040F2CF72CA6008614861E1
:101DD00088610846FFF7E4FB002803D0FFE7FEF721
:101DE00059FBFFE74FF48050129040F27000C2F2AE
:101DF000000012A9FFF780FC002803D0FFE7FEF7E0
:101E000049FBFFE740F27000C2F20000FFF72EFE30
:101E1000002803D0FFE7FEF73DFBFFE7002010900E
:101E2000119040F27000C2F2000010A9FFF746FBCB
:101E3000002803D0FFE7FEF72DFBFFE760200990A5
:101E400000200A900B900C900D900E900F9040F295
:101E50007001C2F2000109AA009008461146009ADA
:101E6000FFF754FD002803D0FFE7FEF713FBFFE761
:101E70000020019002900390049005904FF40051CF
:101E80000691089040F27000C2F2000001A9FFF72D
:101E9000B7FA002803D0FFE7FEF7FCFAFFE740F2AD
:101EA0007000C2F20000FFF7FDFC16B080BD00001C
:101EB00080B586B0002005900490039002900190B8
:101EC000009040F2B801C2F2000140F20042C4F2B8
:101ED00000020A6047224A6088604FF6FF72CA60BB
:101EE000086188610846FFF75BFB002803D0FFE725
:101EF000FEF7D0FAFFE74FF48050029040F2B800AE
:101F0000C2F2000002A9FFF7F7FB002803D0FFE7A9
:101F1000FEF7C0FAFFE700200090019040F2B80001
:101F2000C2F200006946FFF7C9FA002803D0FFE7B4
:101F3000FEF7B0FAFFE706B080BD000080B586B0BE
:101F4000002005900490039002900190009040F2D0
:101F50000011C2F2000140F60002C4F200020A6061
:101F600047224A6088604FF6FF72CA600861886144
:101F70000846FFF715FB002803D0FFE7FEF78AFAB3
:101F8000FFE74FF48050029040F20010C2F20000D0
:101F900002A9FFF7B1FB002803D0FFE7FEF77AFAAA
:101FA000FFE700200090019040F20010C2F2000014
:101FB0006946FFF783FA002803D0FFE7FEF76AFAC5
:101FC000FFE706B080BD0000FFE7FEE7FFE7FEE7A2
:101FD00080B58BB013468C4686460A9009910892CC
:101FE0000A9800F0070007900798C0F1070005283D
:101FF0000493CDF80CC0CDF808E003D3FFE704202C
:10200000019004E00798C0F107000190FFE70198F4
:10201000069007980430062803D8FFE700200090B8
:1020200003E0079803380090FFE7009805900998AF
:102030000699012202FA01F1013908400599884008
:10204000089B02FA01F10139194008430BB080BD29
:102050007047000084B001460390039840F20002EC
:10206000C2F200021268D20844F6D353C1F26203EE
:10207000A2FB03239B095843029001910092FFE7C2
:1020800000BFFFE70298411E02910028F8D1FFE748
:1020900004B070477047000080B584B001460290DC
:1020A00002980138B0F1807F019103D3FFE701204E
:1020B00003901BE0029801384EF21401CEF20001A9
:1020C00008604FF0FF300F2100F044FB4EF2180083
:1020D000CEF20000002101604EF21000CEF20000AE
:1020E0004FF0070EC0F800E00391FFE7039804B03B
:1020F00080BD000080B5FEF7C1FB80BD80B592B009
:1021000008A828210290FEF765F8002007900690A5
:10211000059004900390012108914FF4803ECDF882
:1021200024E00A900C9102200F90CDF840E04FF48B
:10213000E01011900298FEF7F9FD002803D0FFE7A8
:10214000FEF7A8F9FFE70F2003900220049000217A
:1021500005914FF480620692079103A90190084609
:102160000199FEF74DFC002803D0FFE7FEF792F936
:10217000FFE712B080BD00007047000085B00A463E
:10218000034604900391049800680290049842F674
:102190000041C4F2010188420192009315D0FFE78B
:1021A0000498B0F1804F10D0FFE7049840F200414E
:1021B000C4F20001884208D0FFE7049840F600010D
:1021C000C4F2000188420AD1FFE7029820F07000B3
:1021D000029003984068029908430290FFE7049830
:1021E00042F60041C4F20101884215D0FFE704988D
:1021F000B0F1804F10D0FFE7049840F20041C4F2E4
:102200000001884208D0FFE7049840F60001C4F2BC
:10221000000188420AD1FFE7029820F44070029042
:102220000398C068029908430290FFE7029820F0E3
:102230008000039949690843029002980499086054
:10224000039880680499C8620398006804998862BA
:10225000049842F60041C4F20101884205D1FFE72B
:102260000398006904990863FFE70498012141611C
:1022700005B0704780B587B013468C4686460690F9
:1022800005910492059800F01F00012101FA00F069
:102290000390039806990A6A22EA000008620498EB
:1022A000059901F01F01884006990A6A10430862E7
:1022B0000293CDF804C0CDF800E007B080BD000067
:1022C000B0B589B09C4696460C46054608900791E5
:1022D00006920593089880680490049820F47F4043
:1022E000049007980699059A41EA02210843049947
:1022F00008430490049808998860CDF80CC0CDF884
:1023000008E00194009509B0B0BD000085B00A4610
:10231000034604900391049880680290029820F08C
:102320007000029003980299084340F00700029061
:102330000298049988600192009305B070470000EC
:1023400087B00A460346069005910698006A0390F6
:102350000698016A21F00101016206984068029026
:10236000069880690490049820F070000490049806
:1023700020F0030004900598006804990843049035
:10238000039820F0020003900598806803990843A1
:102390000390069842F60041C4F20101884201927E
:1023A00000930ED1FFE7039820F0080003900598F2
:1023B000C068039908430390039820F00400039039
:1023C000FFE7069842F60041C4F20101884213D1AA
:1023D000FFE7029820F480700290029820F40070C9
:1023E0000290059840690299084302900598806917
:1023F000029908430290FFE7029806994860049802
:10240000069988610598406806994863039806997B
:10241000086207B07047000087B00A46034606907E
:1024200005910698006A03900698016A21F0100150
:1024300001620698406802900698806904900498AA
:1024400020F4E0400490049820F440700490059833
:102450000068049941EA00200490039820F02000CD
:10246000039005988068039941EA0010039006984C
:1024700042F60041C4F201018842019200930FD15B
:10248000FFE7039820F0800003900598C068039947
:1024900041EA00100390039820F040000390FFE70A
:1024A000069842F60041C4F20101884215D1FFE7C7
:1024B000029820F480600290029820F4006002905C
:1024C00005984069029941EA800002900598806968
:1024D000029941EA80000290FFE70298069948605D
:1024E000049806998861059840680699886303985E
:1024F0000699086207B0704787B00A4603460690FF
:1025000005910698006A03900698016A21F480718B
:1025100001620698406802900698C0690490049889
:1025200020F070000490049820F0030004900598B7
:102530000068049908430490039820F40070039005
:1025400005988068039941EA00200390069842F6B6
:102550000041C4F201018842019200930FD1FFE7CC
:10256000039820F4006003900598C068039941EA3D
:1025700000200390039820F480600390FFE7069802
:1025800042F60041C4F20101884215D1FFE70298EA
:1025900020F480500290029820F400500290059898
:1025A0004069029941EA00100290059880690299F9
:1025B00041EA00100290FFE70298069948600498EB
:1025C0000699C861059840680699C86303980699FA
:1025D000086207B07047000087B00A4603460690BD
:1025E00005910698006A03900698016A21F48051CB
:1025F00001620698406802900698C06904900498A9
:1026000020F4E0400490049820F440700490059871
:102610000068049941EA00200490039820F40050D7
:10262000039005988068039941EA0030039006986A
:1026300042F60041C4F201018842019200930BD19D
:10264000FFE7029820F480400290059840690299C3
:1026500041EA80100290FFE70298069948600498CA
:102660000699C86105984068069908640398069918
:10267000086207B07047000080B588B013468C46EA
:1026800086460790069105920798006A039007987E
:10269000016A21F0010101620798806904900498A1
:1026A00020F0F00004900598049941EA001004908D
:1026B000039820F00A0003900698039908430390BA
:1026C0000498079988610398079908620293CDF8E6
:1026D00004C0CDF800E008B080BD000080B588B02F
:1026E00013468C4686460790069105920798006A25
:1026F00003900798016A21F0100101620798806930
:102700000490049820F4704004900598049941EADC
:1027100000300490039820F0A000039006980399DD
:1027200041EA00100390049807998861039807997B
:1027300008620293CDF804C0CDF800E008B080BD77
:10274000FFE7FEE74EF60C50CEF200000068C0F343
:102750000220704784B00A4603468DF80F000291AC
:102760009DF90F000028019200930ADBFFE7029811
:1027700000019DF90F104EF20042CEF20002885483
:102780000BE0029800019DF80F1001F00F014EF6CA
:102790001452CEF200028854FFE704B070470000E4
:1027A00084B001460390039800F0070001904EF6B4
:1027B0000C50CEF2000002680292029A4FF6FF031C
:1027C0001A400292029A019B42EA03220023C0F2BD
:1027D000FA531A430292029A0260009104B07047C1
:1027E00080B586B0002005900490FEF755F8039060
:1027F000FFF784FCFFF754FAFFF7C0FAFFF758FB26
:10280000FFF79CFB40F27000C2F200000499FFF752
:1028100089F942F63441C4F201014FF0320EC1F899
:1028200000E04FF47A7E02907046CDF804E000910B
:10283000FDF738FE6420009908600198FDF732FE2C
:102840009620009908600198FDF72CFEC820009999
:1028500008600198FDF726FEFA2000990860FFE75E
:10286000FEE700000000000000000102030406076C
:10287000080902030405060708090A0B0C0D0E0FD0
:1028800010100102A828000800000020100000001D
:1028900028010008B82800081000002040070000A8
:1028A00044010008000000000024F40001000000C2
:0828B000100000000000000010
:04000005080000ED02
:00000001FF
